:020000040000FA
:0200000049288D
:080008000B190D28A71C0A28A2
:10001000051685160C10A710090027140B110900EE
:10002000831383160F160F148117A70183128501FE
:100030000730990083169F010A30850083168E30A1
:100040009900831213309900831231309000831687
:100050000330810083128B178B160B1783160C1439
:100060008312831600309B001C141A088312A4000C
:10007000831601309B001C141A088312A500A200ED
:10008000A21E4428051445280510000005168516F3
:10009000080010208B176A3081002710191B4E288A
:1000A0000000271C4A288B13A0013A30A600A60B9B
:1000B0005728191B20142630A600A60B5D28191BF3
:1000C000A0142630A600A60B6328191B2015263085
:1000D000A600A60B6928191BA0152630A600A60BA2
:1000E0006F28191B20162630A600A60B7528191B91
:1000F000A0162630A600A60B7B28191B2017263039
:10010000A600A60B8128191BA0172630A600A60B57
:100110008728191F4A280000B0302006031D4A28EE
:100120000000191B91280000A1013A30A600A60B7F
:100130009728191B21142630A600A60B9D28191BF1
:10014000A1142630A600A60BA328191B21152630C2
:10015000A600A60BA928191BA1152630A600A60BE0
:10016000AF28191B21162630A600A60BB528191B8F
:10017000A1162630A600A60BBB28191B2117263076
:10018000A600A60BC128191BA1172630A600A60B96
:10019000C728191F4A280000191BCC280000A201FB
:1001A0003A30A600A60BD228191B22142630A6002E
:1001B000A60BD828191BA2142630A600A60BDE28F1
:1001C000191B22152630A600A60BE428191BA21520
:1001D0002630A600A60BEA28191B22162630A600F8
:1001E000A60BF028191BA2162630A600A60BF6288F
:1001F000191B22172630A600A60BFC28191BA217D4
:100200002630A600A60B0229191F4A280000191B38
:1002100007290000A3013A30A600A60B0D29191BDF
:1002200023142630A600A60B1329191BA31426306D
:10023000A600A60B1929191B23152630A600A60B0C
:100240001F29191BA3152630A600A60B2529191B4B
:1002500023162630A600A60B2B29191BA316263021
:10026000A600A60B3129191B23172630A600A60BC2
:100270003729191BA3172630A600A60B3D29191FE5
:100280004A280000A3092308200621062206031D90
:100290004A280000851D562921082406031D4A28E6
:1002A000220825060F39031D4A2800002108A40052
:1002B00083169C1859299A0000309B001C158B133B
:1002C0008B1B5F2955309D00AA309D009C148B1715
:1002D00083122208851D7129251A7029EF39712989
:1002E0001038A500000083169C1874299A0001306C
:1002F0009B001C158B138B1B7A2955309D00AA304F
:100300009D009C148B1783120000A21E89290514DE
:100310008A2905100000221A9029051685169829A9
:10032000A21E94290512952985128F018E01851D23
:0A0330009B29251AA71400004A2893
:02400E00C43BB1
:0442000000000000BA
:00000001FF
